:100000000C9430050C9477050C9477050C947705C7
:100010000C9477050C9477050C9477050C94770570
:100020000C9477050C9477050C94252C0C94F92CE2
:100030000C9465260C9477050C9477050C94770541
:100040000C9477050C9477050C9477050C94770540
:100050000C9477050C94BC260C9477050C947705CA
:100060000C9477050C9477050C9477050C94770520
:100070000C9477050C9477050C9477050C94770510
:100080000C9477050C9477050C9477050C94770500
:100090000C9477050C9477050C9477050C947705F0
:1000A0000C9477050C9477050C9477052B001400BD
:1000B0001A000800150017001C0018000C001200A0
:1000C00013002A00E00004001600070009000A00DF
:1000D0000B000D000E000F0033003400E1001D0086
:1000E0001B00060019000500110010003600370043
:1000F0003800DA5C0007000FE200E30001512C0039
:100100002C0002515000510052004F0035001E02D9
:100110001F022002210222022302240225022602BB
:1001200027024C0001003A003B003C003D003E002D
:100130003F002D022E022F0230020100010040007C
:1001400041004200430044004500350231024A00AC
:100150004D0001000100010001000100010001004B
:1001600001000351010001000100010029001E00EF
:100170001F0020002100220023002400250026006B
:1001800027002A0001003A003B003C003D003E00F1
:100190003F002D002E002F003000310001004000F4
:1001A000410042004300440045003502310226026E
:1001B00027020100010001000100010003510100BC
:1001C0000100010001000100010001002900000000
:1001D00000005200000000000000000000000000CD
:1001E0000000000000000000500051004F0000001F
:1001F00000000000000000000000000000000000FF
:1002000000000000000000000000000000000000EE
:100210000000AE00000000000000000001000451DA
:1002200000000100AC00AA00A900AB000000000023
:1002300000000000000000000000000000000000BE
:1002400000000000C35CC45CC65CC85CCA5CCC5CDB
:100250000000000000000000000000000000C55C7D
:10026000C75CC95CCB5CCD5C0000000000000000F6
:10027000000000000000000000000000000001007D
:10028000000000000000000000000000444542554E
:10029000473A2064697361626C65642E0A004445C4
:1002A0004255473A20656E61626C65642E0A000A09
:1002B000002530313662003A200025303258000ADD
:1002C000722F63203031323334353637383941427A
:1002D000434445460A00290A002575002F0025756C
:1002E000005D2800256400200025640020002564AE
:1002F0000020002564007C0025303258006D6F75A9
:1003000073656B6579205B62746E7C7820792076EA
:1003100020685D287265702F61636C293A205B004C
:100320007267626C696768742074696D65722064B5
:10033000697361626C652E0A007267626C69676836
:10034000742074696D657220656E61626C65642EDF
:100350000A007267626C696768742073657420684C
:100360007376205B4E4F454550524F4D5D3A2025E8
:10037000752C25752C25750A007267626C69676893
:10038000742073657420687376205B454550524F26
:100390004D5D3A2025752C25752C25750A00726750
:1003A000626C69676874207261696E626F7720732E
:1003B0006574206873763A2025642C25642C2564A6
:1003C0002C25750A007267626C696768742064691D
:1003D0007361626C65205B454550524F4D5D3A201C
:1003E0007267626C696768745F636F6E6669672EB7
:1003F000656E61626C65203D2025750A007267623A
:100400006C6967687420656E61626C65205B454548
:1004100050524F4D5D3A207267626C696768745F35
:10042000636F6E6669672E656E61626C65203D2044
:1004300025750A007267626C6967687420746F675B
:10044000676C65205B454550524F4D5D3A207267A1
:10045000626C696768745F636F6E6669672E656E4C
:1004600061626C65203D2025750A007267626C69C7
:10047000676874206D6F6465205B4E4F4545505230
:100480004F4D5D3A2025750A007267626C69676896
:1004900074206D6F6465205B454550524F4D5D3A49
:1004A0002025750A007267626C696768745F696EFF
:1004B0006974207267626C696768745F636F6E66E7
:1004C00069672E6D6F6465203D20302E205772695C
:1004D00074652064656661756C742076616C756501
:1004E0007320746F20454550524F4D2E0A0072679D
:1004F000626C696768745F696E6974206565636FB3
:100500006E666967206973206E6F7420656E616224
:100510006C65642E0A007267626C696768745F6953
:100520006E6974207374617274210A007267626C60
:10053000696768745F696E69742063616C6C656477
:100540002E0A007267626C696768745F636F6E661B
:1005500069672E7370656564203D2025640A00720A
:1005600067626C696768745F636F6E6669672E7631
:10057000616C203D2025640A007267626C696768BF
:10058000745F636F6E6669672E736174203D20250A
:10059000640A007267626C696768745F636F6E6695
:1005A00069672E687565203D2025640A00726768BA
:1005B0006C696768745F636F6E6669672E6D6F64E0
:1005C00065203D2025640A007267626C6967687463
:1005D0005F636F6E6669672E656E61626C65203D54
:1005E0002025640A007267626C696768745F636FD4
:1005F0006E66696720454550524F4D3A0A001E0FFE
:100600000500047F3F1F643214643214783C1E1EC0
:10061000140A052223252628292A2C2D2F3032338F
:100620003536383A3B3D3E4042434547494A4C4EB9
:100630005051535557595A5C5E6062646668696BE5
:100640006D6F71737577797B7D7F81838587898AEB
:100650008C8E90929496989A9C9E9FA1A3A5A7A8F1
:10066000AAACAEAFB1B3B4B6B8B9BBBCBEBFC1C221
:10067000C3C5C6C7C9CACBCCCDCED0D1D2D2D3D4B4
:10068000D5D6D7D7D8D9D9DADADBDBDBDCDCDCDCD2
:10069000DCDDDDDDDDDCDCDCDCDCDBDBDBDADAD9A0
:1006A000D9D8D7D7D6D5D4D3D2D2D1D0CECDCCCB22
:1006B000CAC9C7C6C5C3C2C1BFBEBCBBB9B8B6B440
:1006C000B3B1AFAEACAAA8A7A5A3A19F9E9C9A98D0
:1006D000969492908E8C8A89878583817F7D7B79A1
:1006E000777573716F6D6B6968666462605E5C5A82
:1006F0005957555351504E4C4A4947454342403E45
:100700003D3B3A3836353332302F2D2C2A292826D6
:10071000252322FFAA7F55400001010101010101AB
:1007200001010202020202020202020303030303A6
:100730000303030404040404040405050505050675
:100740000606060607070707070808080809090933
:10075000090A0A0A0B0B0B0C0C0C0D0D0D0E0E0EDC
:100760000F0F0F101011111112121313141415156D
:1007700016161717181819191A1A1B1B1C1D1D1EDF
:100780001E1F202021222223242425262627282933
:10079000292A2B2C2D2D2E2F303132323334353661
:1007A0003738393A3B3C3D3E3F4041424344454661
:1007B0004748494A4C4D4E4F50515354555658593D
:1007C0005A5B5D5E5F616264656668696B6C6D6FE4
:1007D0007072737577787A7B7D7E80828385878857
:1007E0008A8C8E8F91939596989A9C9EA0A2A3A591
:1007F000A7A9ABADAFB1B3B5B7BABCBEC0C2C4C692
:10080000C9CBCDCFD1D4D6D8DBDDDFE2E4E7E9EB4D
:10081000EEF0F3F5F8FAFDFF0A002530325820001B
:100820006B6579626F6172645F7265706F72743A42
:1008300020000A0025303258006B6579626F6172C2
:10084000645F7365745F6C65643A200064656C5F17
:100850006B65795F6269743A2063616E2774206406
:10086000656C3A20253032580A006164645F6B651C
:10087000795F6269743A2063616E277420616464F1
:100880003A20253032580A005B735D004B6579626F
:100890006F6172642073746172742E0A005B575D1D
:1008A000005B535D005B525D005B445D005B435D3C
:1008B0000012034E004900550020004D0069006EF3
:1008C000006900000010034B004200440046006134
:1008D000006E00730000000403090409025B0003BA
:1008E0000100A0FA0904000001030101000921111F
:1008F0000100012240000705810308000A090401E4
:1009000000010300000009211101000122B60007C7
:1009100005820320000A0904020002030000000906
:100920002111010001222200070583032000010795
:1009300005030320000112011001000000086D6E84
:1009400001000100010200010631FF0974A1010943
:1009500075150026FF00952075088102097615009F
:1009600026FF00952075089102C005010902A1012A
:1009700085020901A10005091901290815002501B1
:100980009508750181020501093009311581257F1E
:1009900095027508810609381581257F950175082E
:1009A0008106050C0A38021581257F95017508819D
:1009B00006C0C005010980A101850319012AB700FD
:1009C000150126B700950175108100C0050C0901BD
:1009D000A101850419012AA002150126A002950192
:1009E00075108100C005010906A1018505050719DB
:1009F000E029E71500250195087501810205071911
:100A00000029EF1500250195F075018102050819EF
:100A1000012905950575019102950175039101C0A4
:100A200005010906A101050719E029E715002501BF
:100A30009508750181029501750881010507190066
:100A400029FF150026FF0095067508810005081985
:100A5000012905950575019102950175039101C064
:100A600011241FBECFEFDAE0DEBFCDBF04B603FE18
:100A700027C08091540390915503A0915603B091E3
:100A800057038730904BA740B04BD1F410925403DA
:100A900010925503109256031092570314BE84B758
:100AA000877F84BF0FB6F894A89580916000886115
:100AB00080936000109260000FBEE0E0F8E30995BB
:100AC00011E0A0E0B1E0E6EAF0E602C005900D9288
:100AD000A83DB107D9F723E0A8EDB1E001C01D9210
:100AE000A435B207E1F70E9458290C9415300C94F4
:100AF0000000FF93EF93E091D801F091D901309776
:100B000009F00995EF91FF910895FC0185918030DE
:100B100011F0EFDFFBCF0895FF27E0E230E247FF5F
:100B20000CC0419597FF09C0EDE2609570958095E6
:100B30009095611D711D811D911D27FF02C021959A
:100B400030E350E2AA27660F771F881F991FAA1F5C
:100B5000A41710F0A41B63955A95A9F7AA3008F0C2
:100B6000A95FA05DAF93F3956115710581059105AE
:100B700041F7ED3211F4EF93F395F21718F43F9328
:100B8000F395FBCF8F91B5DFFA95E1F70895E991E1
:100B9000F9918591803021F0853219F0AADFF9CFE3
:100BA000089520E0E89455915532C1F3503311F483
:100BB000689455915A3348F4505390F3220F022E03
:100BC000220F220F200D250FF4CF0EF421958991CD
:100BD0009991533619F3533729F1533559F1BC0123
:100BE00088279927E8945C3621F489919991689433
:100BF0005591543639F446EF7EF077FF0DC08FEFF4
:100C00009FEF0AC055374AE039F0583540E121F0EE
:100C1000523642E009F00895FF93EF937DDFEF91A4
:100C2000FF91B7CFFF93EF93FC0181918030B9F32F
:100C300060DFFBCFFF93EF9368DFF1CFDF93CF93BC
:100C4000CDB7DEB72596A3DFCF91DF9108956E9AD9
:100C5000769A0C94300981E0089581E008950C940F
:100C60002D0608950C9431061F93CF93DF9300D087
:100C700000D00F92CDB7DEB749835A836B83309192
:100C8000570289819A8131111DC06623B9F0222350
:100C9000A9F00E944523182F682F89819A810E940C
:100CA000F12269817A81812F0F900F900F900F9020
:100CB0000F90DF91CF911F910C9425070E941D2367
:100CC000182FEFCF0E94452369817A81EDCFFC0177
:100CD000262F408151816281738184810C94340676
:100CE000CF93DF93EC0160E00E946706BE01DF91C5
:100CF000CF910C9432060E948924811102C00E9477
:100D00002D250C9427060C94320908950E945B1E31
:100D10000E9485062FEF84E39CE0215080409040A4
:100D2000E1F700C000000C94E0260F931F93CF93CF
:100D3000DF93EC0161E00E9467068C01BE010E9416
:100D40002F06882341F1BE01C8010E944417882361
:100D500011F1BE01C8010E9496178823E1F0BE017F
:100D6000C8010E94B9188823B1F0BE01C8010E94D1
:100D70003C16882381F08A81882341F101308CE57B
:100D8000180779F00F3D8CE51807E9F001151C45AF
:100D9000E9F40E94860680E0DF91CF911F910F91C8
:100DA00008959091DB02892F8E7F90FF8160809360
:100DB000DB0280FF05C08EE992E00E948505EBCF43
:100DC0008CE892E0FACF0E942D25E5CFCE01DF918D
:100DD000CF911F910F910C942B06829590E09C016E
:100DE000220F331F220F331F2C7C959587959595E5
:100DF00087958373282B30E0C901880F991F8A7A61
:100E0000359527952575822B0895CF93DF93D92F9C
:100E10000E94ED06C82F8D2F0E94ED069C2FDF91BA
:100E2000CF91089508950C94120781E008950C94D1
:100E30001507CF93C82F0E9413078C2FCF910C94C6
:100E4000170790E080E008950895972F70E02CE058
:100E5000929F600D711D1124FB0190E3899FE00DAD
:100E6000F11D1124EE0FFF1FE455FF4F8591949162
:100E70000895FC01EE0FFF1FE155FD4F8591949100
:100E80000895CF93DF930E9425070E945608EC0136
:100E9000811520E5920708F042C0811530E49307E0
:100EA00008F0BDC0883E910528F5803E910508F008
:100EB0009DC0883A910588F4853A910508F08FC065
:100EC0008130910509F492C0009709F48FC004970E
:100ED00008F08CC0D0E0C0E089C08F3B910508F4D9
:100EE00089C0805C9109C03CD105A0F30E943907FC
:100EF000EC017CC08115904250F4C11581E0D80707
:100F000008F074C0CD3ED10528F3D0656FC0C1157F
:100F100090E3D90708F079C0CE019F70E7CF811523
:100F200025E5920758F5811534E5930708F0A6C02A
:100F3000811542E5940750F4C11581E5D80708F4FE
:100F400071C0DC2FCC27C16FD06A50C0982F969506
:100F500096959E0123703327C115D34508F07FC0B5
:100F6000C1E0D0E002C0CC0FDD1F2A95E2F720E2FD
:100F7000929FC0011124C82BD92B6FC0C11589E5E0
:100F8000D807A8F4C11598E5D90708F07CC0C115A9
:100F900026E5D20708F09ECF8C2F0E94ED08C82FBF
:100FA000D0E0DC2FCC27CC27DF71D0621FC0C11569
:100FB0003AE5D30708F46CC0CE01905681159042F3
:100FC00008F088CF8D2F8F710E94ED0890E0982F48
:100FD000882788279F719C012C2BE901E6CFC55AF1
:100FE000D0E0C65ADE4FC881D0E0D064CE01DF9198
:100FF000CF910895C85AD0E0CC0FDD1FC45DDE4FFD
:101000000990D881C02DD464F1CFCE019927D3FFA8
:1010100003C0EC01D86CEACFEC01D06CE7CFDF70F5
:10102000D06AE4CFCE01E4E096958795EA95E1F7A2
:1010300083702C2F26952695237090E2299F90018E
:101040001124382B8C2F8370C1E0D0E002C0CC0F6C
:10105000DD1F8A95E2F7C22BD32BDC68C7CFC1E036
:10106000D0E002C0CC0FDD1F2A95E2F730E2939F5B
:10107000C0011124C82BD92BDA68B8CFD82FCC27C0
:10108000C46FD06AB3CFDC2FCC27C06FD06AAECF8D
:101090008C2F8F700E94ED0834E0D695C7953A9555
:1010A000E1F7CF709C2FEC01D069A0CF8238910579
:1010B000B1F1B0F48133910509F475C048F4893277
:1010C000910509F469C08A32910509F473C0089545
:1010D0008533910509F459C08933910501F10895CB
:1010E000833E9105A9F138F4803E9105F9F0823EE6
:1010F000910549F10895863E9105A9F1873E910534
:10110000C9F1843E910519F52091460321FF1FC0C6
:101110008091450384FD14C087EE90E008952091EE
:1011200045032370A1F080EE90E0089520914503DF
:1011300020FD47C03091460330FF09C024FF44C062
:1011400090E080E004C02091450322FDF7CF089590
:101150002091450322FD3BC03091460330FDE3CF93
:1011600024FFF5CFEDCF2091450323FFF0CF24FDE1
:10117000E7CFD2CF2091450323FD2CC03091460309
:1011800031FFEECF84EE90E008952091450325FFD6
:10119000DECF89E290E008952091450325FFD7CF67
:1011A00085E390E008952091450326FFD0CF8AE2A1
:1011B00090E008952091450326FFC9CF81E390E098
:1011C000089589E390E0089583EE90E0089582EE1B
:1011D00090E0089586EE90E008959091450392FF87
:1011E00006C0282F28712830F9F4877F846093FF88
:1011F00006C0282F28712831F1F4877E8461209160
:10120000460320FF06C0382F38713830D9F4877F65
:10121000816021FF06C0282F28712831D1F4877EF4
:10122000816194FD877E0895282F24712430F9F67A
:101230008B7F8860DCCF282F2471243101F78B7ECF
:101240008861DDCF382F3171313019F78E7F88609A
:10125000E0CF282F2171213121F78E7E8861E1CFE7
:10126000089508950C943109E82FF0E0EE0FFF1F68
:10127000E65FFC4F808191810895CF92DF92EF92DB
:10128000FF920F931F93CF93DF938FEB92E00E9417
:1012900085058AE0E82E83E0F82ED0E0C0E09AEBE6
:1012A000C92E92E0D92E01EB12E0DF93CF93DF92AB
:1012B000CF920E941E0687EB92E00E948505F701FF
:1012C000819191917F010E9405079F938F931F93B6
:1012D0000F930E941E068FEA92E00E9485052196D8
:1012E0008DB79EB708960FB6F8949EBF0FBE8DBF00
:1012F000C430D105D1F6DF91CF911F910F91FF90AE
:10130000EF90DF90CF90089580EA8A95F1F70895E5
:1013100000C008950C948409F894E82FE295EF70CA
:10132000F0E031A1282F2F7081E090E001C0880FFC
:101330002A95EAF7982F9095932391A392A1892B50
:1013400082A378940895CF93DF9380E90E948C095B
:1013500081E90E948C0982E90E948C0983E90E943C
:101360008C09CDE5D1E089910E948C0981E0C936D4
:10137000D807C9F7109203031092020310920B03CF
:1013800010920A03109205031092040310920D03A9
:1013900010920C03109207031092060310920F0391
:1013A00010920E0310920903109208031092110379
:1013B0001092100384E00E94650ADF91CF910C9493
:1013C0007B06AF92BF92CF92DF92EF92FF920F9384
:1013D0001F93CF93DF9309E611E0C2E0D3E0C12C65
:1013E000D12CEE24E394F12CF80181918F01F89433
:1013F000E82FE295EF70F0E021A18F70A70102C005
:10140000440F551F8A95E2F7CA01922F982B91A39A
:1014100092A18095892382A378940E948809EDE5A2
:10142000F1E030E020E0B12CA12C4191A42FA29555
:10143000AF70B0E090968C9190E04F7002C095959F
:1014400087954A95E2F780FD3BC0C701022E02C096
:10145000880F991F0A94E2F7A82AB92A2F5F3F4FF5
:101460002C30310511F7F801319780810E948C09E9
:1014700053E0C5120E948A0988819981A816B9068D
:1014800011F1B982A88281E0D82AC394229684E01F
:10149000C812AACF2D2D44E06AE073E082E093E009
:1014A0000E94660A0E9483068D2DDF91CF911F91C5
:1014B0000F91FF90EF90DF90CF90BF90AF90089585
:1014C00090E080E0C9CF80E0DFCF0895FF920F93D6
:1014D0001F93CF93DF93F82E092F162FD72FC42FEA
:1014E000222349F081E08093DC010E9495269093AD
:1014F000DB018093DA018091DC018823A1F08091E7
:10150000DA019091DB010E94AD26069760F0EF2D85
:10151000F02FA12FBD2F90E080E0D0E08C179D0729
:1015200044F01092DC01DF91CF911F910F91FF9059
:101530000895219131912D933D930196EFCF8091A4
:10154000E30180FF12C06091090185E0689FB0014E
:101550001124759567957595679560387105A8F59F
:1015600061157105A1F1862F089581FF09C0609171
:10157000090185E0689FB001112475956795EDCF4D
:101580006091090182FD0AC08091E2018823D1F0B7
:101590009091080160910901891728F085E0689F02
:1015A000B0011124DACF869FB001112485E0869F17
:1015B0009001879F300D1124692F70E0C9010E94AE
:1015C000D82ECBCF65E070E0CECF8FE7089581E0D5
:1015D00008958091E30180FF0CC06091050170E0E7
:1015E00075956795759567956115710549F1862F14
:1015F000089581FF06C06091050170E075956795BB
:10160000F3CF6091050182FD0BC09091E101992318
:10161000A1F06091040180910501961738F0682FC0
:1016200070E06038710500F38FE70895899FC0016D
:10163000112470E00E94D82EF4CF61E070E0D7CF83
:1016400081E008958D3E31F40E949F0A8195809338
:10165000E70108958E3E19F40E949F0AF8CF8F3E4D
:1016600031F40E949F0A81958093E6010895803F9E
:1016700019F40E949F0AF8CF893F29F40E94E90AD1
:101680008093E80108958A3F21F40E94E90A819538
:10169000F7CF8B3F31F40E94E90A81958093E901ED
:1016A00008958C3F19F40E94E90AF8CF9FE0980F43
:1016B000983070F4815F990B21E030E001C0220F77
:1016C0008A95EAF78091E501822B8093E5010895E0
:1016D0008D3F31F48091E30181608093E3010895AF
:1016E0008E3F21F48091E3018260F7CF8F3FB9F7FD
:1016F0008091E3018460F1CF4091E6018D3E59F481
:101700008091E70187FF0DC01092E70141110BC0E6
:101710001092E20108C08E3E81F48091E701181614
:101720009CF3442381F08091E8019091E901892B99
:1017300009F05AC01092E10108958F3E49F447FF25
:10174000F0CF1092E6018091E7018111ECCFE0CF5C
:10175000803F19F41416ACF3E4CF9091E801893F6F
:1017600029F41916F4F61092E801DBCF8A3F19F438
:1017700097FFD7CFF8CF9091E9018B3F29F497FFDE
:10178000D0CF1092E901CDCF8C3F19F41916CCF3CC
:10179000C8CF9FE0980F983090F4815F990B21E0BB
:1017A00030E0B90102C0660F771F8A95E2F7CB01DE
:1017B00080959091E50189238093E501B2CF8D3F1B
:1017C00031F48091E3018E7F8093E301AACF8E3FB5
:1017D00021F48091E3018D7FF7CF8F3F09F0A1CFF6
:1017E0008091E3018B7FF0CF08958091DB0283FF2E
:1017F0007EC08DEF92E00E9485058091E5011F92E9
:101800008F9388EF92E09F938F930E941E0686EF3E
:1018100092E00E9485058091E601282F082E000C99
:10182000330B3F938F9383EF92E09F938F930E94AC
:101830001E0681EF92E00E9485058091E701282F26
:10184000082E000C330B3F938F938EEE92E09F9304
:101850008F930E941E068CEE92E00E948505809177
:10186000E801282F082E000C330B3F938F9389EE4D
:1018700092E09F938F930E941E0687EE92E00E9453
:1018800085058091E901282F082E000C330B3F932A
:101890008F9384EE92E09F938F930E941E0681EEB9
:1018A00092E00E9485058091E2011F928F938EED58
:1018B00092E09F938F930E941E068CED92E00E940F
:1018C00085058091E3011F928F9389ED92E09F93AC
:1018D0008F930E941E0686ED92E00E9485058DB7CB
:1018E0009EB74C960FB6F8949EBF0FBE8DBF0E9458
:1018F00095269C019091E6018091E701982B21F0BB
:101900003093E0012093DF019091E8018091E9019B
:10191000982B21F03093DE012093DD0184EE91E0DD
:101920000C944F19EF92FF920F931F93CF93DF9375
:1019300000D000D000D0CDB7DEB786E0E4EEF1E015
:10194000DE01119601900D928A95E1F7E090E60193
:10195000F090E7010091E8011091E9011092E60191
:101960001092E7011092E8011092E9018E2D8F2963
:1019700091F08091DF019091E0010E94AD26AC01D1
:101980009091E201992309F43FC080910A018417E4
:10199000150608F447C0802F812B91F08091DD015E
:1019A0009091DE010E94AD26AC019091E101992356
:1019B00009F477C0809106018417150608F47FC0EA
:1019C0008091E6019091E701892B9091E801892BA4
:1019D0009091E901892B11F00E94F50B86E0FE0140
:1019E0003196A4EEB1E001900D928A95E1F726962A
:1019F0000FB6F894DEBF0FBECDBFDF91CF911F9120
:101A00000F91FF90EF90089520910B018AE0289F9D
:101A1000900111242417350708F0BDCF9F5F9093E4
:101A2000E20102C09F3FD1F7EE2059F00E949F0AC9
:101A30009FEF1E140CF491E0899F802D1124809358
:101A4000E601FF2059F00E949F0A9FEF1F140CF43B
:101A500091E0899F802D11248093E7013091E60168
:101A6000332309F498CF2091E701222309F493CF7F
:101A700045EB3403C0011124992359F09093E601FA
:101A800045EB240390011124332339F03093E7010F
:101A900082CF81E08093E601F3CF81E08093E7017C
:101AA0007ACF209107018AE0289F90011124241702
:101AB000350708F085CF9F5F9093E10102C09F3FFB
:101AC000D1F7002359F00E94E90A9FEF10160CF499
:101AD00091E0899F802D11248093E801112359F012
:101AE0000E94E90A9FEF11160CF491E0899F802D66
:101AF00011248093E9013091E801332309F460CF88
:101B00002091E901222309F45BCF45EB3403C001A6
:101B10001124992359F09093E80145EB2403900197
:101B20001124332339F03093E9014ACF81E08093C7
:101B3000E801F3CF81E08093E90142CF86E0E4EE53
:101B4000F1E0DF011D928A95E9F71092E20110920F
:101B5000E1011092E3010895EF92FF920F931F931A
:101B6000CF93DF93EB01E82FD11110C0442321F074
:101B7000F0E0E85EF84FE4916E2F7E2F8E2FDF911C
:101B8000CF911F910F91FF90EF9008950D2F10E0CE
:101B9000282F30E0442329F0285E384FF9012491A2
:101BA00030E0F6E0CF9FC0011124EFEFF0E0BF017D
:101BB0000E94C42EAB018C2F90E0880F991FA5E5E1
:101BC000A49FB001A59F700D1124861B970B982F21
:101BD000990F980FBF01601B710B629FD001639F2B
:101BE000B00D729FB00D11248B2F9D9FB001112459
:101BF000672F7727EF01C61BD70BBE01629FE0015D
:101C0000639FD00D729FD00D11247F01E91AF10856
:101C1000E09EB001E19E700DF09E700D1124672FC3
:101C20007727E61BF70BE29F8001E39F100DF29FE1
:101C3000100D1124E12F722F4230510599F048F414
:101C40004115510569F04130510581F0EB2F8D2F81
:101C500007C04430510569F080F046305105B1F7B6
:101C60006E2F8DCFE22F7B2F812FFACFE22F7D2F8A
:101C7000F7CFEB2F822F712FF3CF7B2F822FED2FFA
:101C8000EFCF41E00C94AC0D08950C94410ECF932E
:101C9000DF93762FE901682F842F0E94450E798308
:101CA00068838A83DF91CF91089580911203982FE2
:101CB0009E7F29F481708260809312030895863597
:101CC000E8F381708465F8CF88E090E00C94B62F3B
:101CD000CF92DF92EF92FF926B017C010E94550E32
:101CE000B701A60188E090E0FF90EF90DF90CF90E1
:101CF0000C94D42FE2E1F3E083E0808311828FEF34
:101D000082838383148260817181828193810C94A8
:101D1000680E8091DB0280FF76C085EE95E09F9390
:101D20008F930E941E068091DB020F900F9080FF20
:101D30006AC08091120381701F928F9388EC95E0A6
:101D40009F938F930E941E068091DB020F900F904D
:101D50000F900F9080FF57C08091120386951F92BD
:101D60008F938DEA95E09F938F930E941E0680913A
:101D7000DB020F900F900F900F9080FF44C0809176
:101D800013031F928F9383E995E09F938F930E9493
:101D90001E068091DB020F900F900F900F9080FF36
:101DA00032C0809114031F928F9389E795E09F932F
:101DB0008F930E941E068091DB020F900F900F9070
:101DC0000F9080FF20C0809115031F928F938FE5A5
:101DD00095E09F938F930E941E068091DB020F90E7
:101DE0000F900F900F9080FF0EC0809116031F92EE
:101DF0008F9383E495E09F938F930E941E060F902C
:101E00000F900F900F9008958091120380FF02C0F1
:101E10008695089580E0089590911603933018F404
:101E20009F5F90931603882351F060911203709185
:101E3000130380911403909115030C94680E089578
:101E400081E00C940C0F90911603992319F0915096
:101E500090931603882351F060911203709113033D
:101E600080911403909115030C94680E089581E0FD
:101E70000C94230F70E00C94AC16609110018091CB
:101E8000120380FF0AC080910F0123E0829FC001EE
:101E90001124895E9C4F0C943A0F8091110190910E
:101EA000120123E0829FF0011124E95EFC4F8917A3
:101EB00050F71182108212828F5F3396F8CF909183
:101EC000120390FF14C0909111012091120133E090
:101ED000939FF0011124E95EFC4F921710F00C94CF
:101EE0003D0F8183608342839F5F3396F6CF0895D1
:101EF000CF93DF9300D00F92CDB7DEB7909112034E
:101F000090FF0AC09E012F5F3F4F0E94470E4B81FA
:101F100069818A810E945F0F0F900F900F90DF916F
:101F2000CF910895CF93DF93EC01EC81F0E0ED5E6B
:101F3000F94F4491E2E1F3E0628181810E94780FE0
:101F40008C818F5F8C83DF91CF910895CF93DF9346
:101F5000EC01E2E1F3E0438162818C810E94780F21
:101F60008C818F5F8C83DF91CF9108950F931F93A6
:101F7000CF93DF9300D00F92CDB7DEB78C01809165
:101F8000EA0181110AC09E012F5F3F4F4FEF6FEFB3
:101F90000E94470E8A818093EA01F80164816130D2
:101FA00069F08091EA0140E0662361F040E0623030
:101FB00011F44091EA0180E060E004C06091EA0120
:101FC00040E080E00E945F0FF801848190E001967C
:101FD00063E070E00E94D82E84830F900F900F90E2
:101FE000DF91CF911F910F9108954F925F926F9261
:101FF0007F928F929F92AF92BF92CF92DF92EF9299
:10200000FF920F931F93CF93DF9300D00F92CDB722
:10201000DEB7182FD62E042F722E9091120390FF48
:1020200046C0E92FE695AE2FB0E0A359BE4F8C9184
:1020300080933A029E7F923009F04DC09E012F5F3F
:102040003F4F812F0E94470E4B8169818A810E94F8
:102050005F0F10931303D09214030093150377209E
:1020600009F49CC0609112037091130380911403D2
:10207000909115030E94680E8091DB0280FF17C0CB
:10208000809115031F928F93809114031F928F9359
:10209000809113031F928F9389E793E09F938F930F
:1020A0000E941E060FB6F894DEBF0FBECDBF0F9084
:1020B0000F900F90DF91CF911F910F91FF90EF90B4
:1020C000DF90CF90BF90AF909F908F907F906F9058
:1020D0005F904F900895823019F400911503B9CFA5
:1020E000863019F410911303B4CF8930D9F38931B4
:1020F00009F0AFCFE9518E2F8170682E8E2F809519
:102100008170C82EE695F0E0ED5EF84FE590F49012
:10211000412CFF249EE9A92E93E0B92E6091130172
:10212000461618F00E943D0F94CF842C912C8E9C63
:10213000C0018F9C900D9E9C900D112470E00E9418
:10214000C42E512E611028C0560E8091DB0280FFF4
:1021500011C0FF92EF921F92CF921F925F921F9237
:102160004F92BF92AF920E941E060FB6F894DEBF48
:102170000FBECDBF20911101820E911C9401220F40
:10218000331F280D391D295E3C4F402F6D2D852DA5
:102190000E94470E4394C2CF561AD7CF8091DB02DC
:1021A00080FF85CF1F920F931F92DF921F921F9384
:1021B00082E593E073CFE2E1F3E09181282F438140
:1021C000628188E0890F0C94F50F81E00C94DB109C
:1021D000E2E1F3E09181282F4381628188EF890F4A
:1021E0000C94F50F81E00C94E810E2E1F3E06281D9
:1021F00028E0620F08F46FEF282F438181810C944F
:10220000F50F81E00C94F510E2E1F3E0628128E043
:10221000621B08F460E0282F438181810C94F50F44
:1022200081E00C940411E2E1F3E0438128E0420FE5
:1022300008F44FEF282F628181810C94F50F81E023
:102240000C941311E2E1F3E0438128E0421B08F40F
:1022500040E0282F628181810C94F50F81E00C947D
:10226000221120E00C94F50FEF92FF921F93CF9371
:10227000DF93EC0110E0EE24EA94F12C609113015D
:10228000161770F00E943D0F9A818C8190FF27C035
:102290008F5F8C83DF91CF911F91FF90EF90089516
:1022A00020911101422F410F5527551FCA019A0154
:1022B000220F331F280F391F295E3C4F70E0C701E2
:1022C0000E94D82E962F8C814091150360911403A3
:1022D000199F800D11240E94470E1F5FCFCF8150A0
:1022E000D8CFAF92BF92CF92DF92EF92FF920F932F
:1022F0001F93CF93DF93FC0182810FEF80FF01E0FA
:1023000010E04EE0A42E809113011817C8F00E942F
:102310003D0F8091EC01013009F055C0811102C0E0
:102320008091130181508093EC01DF91CF911F9137
:102330000F91FF90EF90DF90CF90BF90AF900895F6
:10234000C0911101C12ED12CCC0DDD2DD11DCE019E
:10235000880F991FC80FD91FC95EDC4F19821882D8
:102360001A8234E0E32EF12CB12C8091EC018B0D1C
:102370008F301CF16A2D0E94B62E892F082E000C7A
:10238000990BC816D90691F4809115038E9DA00172
:102390008F9D500D112455954795559547959E0154
:1023A00060911403809113030E94470EB00EF1E078
:1023B000EF1AF108D1F61F5FA6CF87FFDFCF90910C
:1023C0001301890FDBCF90E001966091130170E05B
:1023D0000E94D82EA8CF0F931F93CF93DF938091A5
:1023E00011019091120123E0829FF0011124E95E16
:1023F000FC4F891740F1C0E0D3E060911301C6178C
:1024000040F10E943D0F20910D018091EB01820F60
:102410008093EB0190910E01920F90930E0119168B
:1024200054F4082E000C990B409113014150550BA8
:10243000841795071CF0219520930D01DF91CF9112
:102440001F910F9108951182108212828F5F33962F
:10245000D0CF0C2F10E070E0C8010E94D82E209140
:102460001101820F482F50E02091EB01022E000C49
:10247000330B02171307BCF020910E01022E000C43
:10248000330B201731077CF08D9F90011124295EBA
:102490003C4F4091150360911403809113030E94F7
:1024A000470ECF5FAACFFA01EE0FFF1FE40FF51F13
:1024B000E95EFC4F118210821282F3CF8F929F92BD
:1024C000AF92BF92CF92DF92EF92FF920F931F9342
:1024D000CF93DF93EC014C81042F10E09801D801D9
:1024E0000E941C2F9B01AC010E94322F4B015C010A
:1024F000E0E2F0E0E01BF10BA5E5B0E0AC019B01F0
:102500000E94322F6B017C019F01DF010E94142F7A
:102510009B01AC010E943D2F9B01AC01280D391D90
:102520004A1D5B1DC701B6010E94EC2EF22E822FC0
:1025300090E039E23F1560F143E0249F90011124BF
:1025400035952795122F109500E085E5E82EEF18B8
:1025500080911301081758F10E943D0F9C8181E082
:10256000992319F0903219F48FEF80930C01809128
:102570000C01890F8C83DF91CF911F910F91FF90F8
:10258000EF90DF90CF90BF90AF909F908F90089585
:1025900025E530E0B901681B790B9B01220F331F41
:1025A000260F371F37FFCCCF2F5F3F4FC9CF8E2D60
:1025B00001FD8F2D20911101622F600F7727771F6A
:1025C0009B01220F331F260F371F295E3C4F412FDF
:1025D000609114030E94470E0F5FBACF0F931F93B1
:1025E000CF93DF93EC0110E000E09091130190177E
:1025F000110609F06CF40E943D0F8C8190E0019669
:10260000817099278C83DF91CF911F910F9108954D
:1026100020911101A801420F511D9A01220F331F71
:10262000240F351F295E3C4F4C816091140380912B
:10263000130396959017110651F04CF0442349F07E
:10264000409115030E94470E0F5F1F4FCECF4423CA
:10265000B9F340E0F7CF4F925F926F927F928F92E3
:102660009F92AF92BF92CF92DF92EF92FF920F9321
:102670001F93CF93DF93FC016280448081E08483C9
:10268000E3E1F6E07490E2E9F6E0E491812C75E094
:10269000972EF2E0CF2EDD24D394AA24AA94B12C55
:1026A00055245A94E7190E2F10E0809113018816D3
:1026B00090F0DF91CF911F910F91FF90EF90DF90FD
:1026C000CF90BF90AF909F908F907F906F905F90D2
:1026D0004F900C943D0FE82CF12C82E0861568F0A9
:1026E0009E9CF0019F9CF00D1124E351FE4F8091C0
:1026F00013038083809114038183411023C09E9C27
:10270000F0019F9CF00D1124E351FE4F13821282C1
:1027100020911101C701820F911D9C01220F331FCF
:10272000280F391F295E3C4F9E9CF0019F9CF00DA5
:102730001124E351FE4F4281618180810E94470E46
:102740008394B3CF9E9CE0019F9CD00D1124C35174
:10275000DE4F8B818823E9F081508B83859DC001FA
:1027600011246C8170E00E94C42EFB01FF27ED5EF6
:10277000F94F8491E82FE719E59DC0011124B801B4
:102780000E94C42E80911503689FB00111247A83A2
:10279000BFCF0E94912F20911503269521582C9D83
:1027A000A0012D9D500D1124452F55278417950705
:1027B0000CF0AECF82E0861588F40E94912FB5010F
:1027C0000E94D82E88830E94912F20911403269571
:1027D000622F70E00E94D82E280F29839E9CF00162
:1027E0009F9CF00D1124E351FE4F1282809115033E
:1027F000893C58F088EC9E9CF0019F9CF00D1124C0
:10280000E351FE4F8483838383CF8431A0F784E137
:10281000F2CF60911203669570E04BE050E084E1E6
:1028200091E00E94A12F892B19F481E080933B0253
:102830000E94952690933402809333028091DB02AC
:1028400080FF08C089E393E09F938F930E941E0648
:102850000F900F90089510923B028091DB0280FF51
:1028600008C080E293E09F938F930E941E060F9012
:102870000F9008959091120390FF54C091708111B0
:102880003BC09260909312036623E9F160911203BA
:102890007091130380911403909115030E94680EA8
:1028A0008091DB0280FF0FC08091120386951F92FA
:1028B0008F9389E894E09F938F930E941E060F9058
:1028C0000F900F900F9060911203669570E04BE0AF
:1028D00050E084E191E00E94A12F892B01F10E9438
:1028E0002B1481E08093360240911503609114030C
:1028F000809113030C9431118B3210F09465C2CF88
:10290000880F982BBFCF8091DB0280FFDCCF8091B6
:10291000120386951F928F938BE694E0CCCF0E9492
:102920000914DFCF0895682F90911203969581E0E6
:10293000890F8B3208F081E00C943A1481E00C94FA
:102940009314682F9091120396958FEF890F09F4D5
:102950008AE20C943A1481E00C94A11461E00C9486
:102960003A14809112038160809312038091DB02FC
:1029700080FF0DC01F9281E08F938DEF93E09F93B6
:102980008F930E941E060F900F900F900F908091D2
:10299000120386950C94AE1460E00C943A14809166
:1029A0003902811160C08091DB0280FF14C08CE28B
:1029B00095E09F938F930E941E068091DB020F90FB
:1029C0000F9080FF08C086E195E09F938F930E944F
:1029D0001E060F900F900E948924811110C08091D3
:1029E000DB0280FF08C08EEE94E09F938F930E94DD
:1029F0001E060F900F900E942D250E947A0E0E94B5
:102A0000640E6093120370931303809314039093E6
:102A100015036E7FC1F48091DB0280FF08C085EA58
:102A200094E09F938F930E941E060F900F900E9438
:102A30007A0E0E94640E60931203709313038093C6
:102A40001403909315030E94550E0E94890E109254
:102A50003B028091120380FF03C086950E94CC1434
:102A600081E0809339020895809112038E7F8093D4
:102A700012036091120370911303809114039091DB
:102A800015030E94680E8091DB0280FF0FC08091C9
:102A9000120381701F928F9385EC93E09F938F9325
:102AA0000E941E060F900F900F900F900E942B1403
:102AB0002FEF80E792E0215080409040E1F700C086
:102AC00000000C943D0F8091DB0280FF10C08091CC
:102AD0001203809581701F928F9384E394E09F93FB
:102AE0008F930E941E060F900F900F900F90809171
:102AF000120380FD0C9434150C94B1140F931F93A2
:102B0000CF93DF9380913B02882309F496C0809194
:102B10003A02E0911203E695E81BE0933502823019
:102B200091F5F0E0E15FF94FE491CE2FD0E002E9BA
:102B30001FE080913602882361F0109236020E94D5
:102B400095269093340280933302109238021092AB
:102B500037020E949526E0913302F09134028E1BD9
:102B60009F0B8F3F9F4708F068C0EC0FFD1FF0934D
:102B70003402E093330283E392E0F801DF91CF91D6
:102B80001F910F910994863049F4F0E0E45FF94F0A
:102B9000E491CE2FD0E006EA1FE0CBCF893051F48C
:102BA000E695F0E0E75FF94FE491CE2FD0E004E343
:102BB00011E1BFCF8F3051F4E695F0E0EA5FF94FB5
:102BC000E491CE2FD0E001E711E1B3CF853149F494
:102BD000F0E0ED5FF94FE491CE2FD0E00BEE11E184
:102BE000A8CFC8E2D0E00EE512E1883109F4A1CF08
:102BF000833239F4E1E0F6E0C591D49106EB1FE0B1
:102C000098CFC4EFD1E00EEE12E1843209F491CFF7
:102C1000C0EDD7E004E41EE0853209F08ACF8E2FA4
:102C200063E00E94AA2EE92FF0E0E250FA4FE4910F
:102C3000CE2FD0E00BE213E17CCFDF91CF911F913B
:102C40000F910895FA01811101C0FB010994CF93FE
:102C5000DF93C82FD62F0E94040F8C1740F00E94DC
:102C6000040F8D1720F4DF91CF910C949E148C2FBC
:102C7000DF91CF910C94AE140F931F93CF938C01DF
:102C8000FB01C281CC2309F465C00E94DA23827261
:102C9000F801E35CFC45E431F10538F4E95EFF4CF2
:102CA0000C940E2F0E946315C0E08C2FCF911F91C2
:102CB0000F9108954BEA54E16EE974E10E942216E7
:102CC000F3CF4EE954E16BEA74E1F8CF42EF50E103
:102CD00065EE70E1F3CF45EE50E162EF70E1EECFCB
:102CE00040E151E161E071E1E9CF41E051E160E1B2
:102CF00071E1E4CF4EE251E16FE171E1DFCF4FE1ED
:102D000051E16EE271E1DACF47E35FE060E27FE03C
:102D1000D5CF40E25FE067E37FE0D0CF81E00E9463
:102D2000AE14C2CF65E082E00E942716BDCF68E0F6
:102D300086E0FACF6EE089E0F7CF64E18FE0F4CF70
:102D400067E185E1F1CF88E1EACF62E289E1ECCF8A
:102D500083E2E5CFC1E0A9CF6A9A4EB14B7F5EB165
:102D60005460EFB7F8949B01220F331F260F371FD3
:102D7000280F391F2817390741F4EFBF8FE594E07A
:102D80000197F1F700C000000895DC016D91CD01BD
:102D900078E05EB9000000C067FF4EB9660F000022
:102DA00000C000C000C04EB900C07A9591F7E2CFD4
:102DB0000F931F93CF93DF93C42FD22FFC018281F7
:102DC0008823C9F040933E020E94952690933D02CD
:102DD00080933C0280E28C0F883008F050C0C770AE
:102DE00081E001C0880FCA95EAF7DF91CF911F916A
:102DF0000F910C94E21B10913E02141335C0809188
:102E00003C0290913D020E94AD26883C910560F500
:102E1000C0E2CD0F1D17B9F080E2810F883040F479
:102E2000177081E001C0880F1A95EAF70E94E91B2C
:102E3000C83048F481E09D2F977001C0880F9A95A3
:102E4000EAF70E94E21B802F0E94DA1BC830B8F418
:102E5000D77081E001C0880FDA95EAF7DF91CF9152
:102E60001F910F910C94E91B80E28C0F883038F48D
:102E7000C77081E001C0880FCA95EAF7EFCFDF91F4
:102E8000CF911F910F9108950F939C01CB01243F87
:102E90004CE5340759F1A8F4293DFCE53F0701F161
:102EA0002A3D4CE53407D1F1283D3C4591F406E23A
:102EB00021EE41EE68ED7CE50E94D81680E00F918E
:102EC0000895263FFCE53F07E9F0B0F0273F3C4579
:102ED000F9F0FC018281882339F110923E02EFCF94
:102EE00007E225EE45EE69ED7CE5E6CF06E221EE50
:102EF00040EE64EF7CE5E0CF07E225EE44EE65EFBF
:102F00007CE5DACF06E221EE42EE66EF7CE5D4CF37
:102F100007E225EE46EE67EF7CE5CECF08E221E042
:102F200045EE6AED7CE5C8CF81E0C9CFCF93DF9352
:102F3000EC01FB018281882309F419C1C230FCE550
:102F4000DF07C0F1C6319CE5D90730F09E012B5F49
:102F50003C452930310570F50E949C24909346032E
:102F600080934503C031ECE5DE0709F4CFC008F0DB
:102F70005BC0C8308CE5D80709F4B6C088F5C4300A
:102F8000ECE5DE0709F4A8C0C0F4C2308CE5D80730
:102F900009F49CC0809145038260C330DC4509F48C
:102FA00098C080914503909146030E94AA240E94F4
:102FB0005B1E80E0DF91CF91089580914503806191
:102FC000C630ECE5DE0709F484C0809145038860D3
:102FD000C730DC4508F47DC080914503806279C02C
:102FE000CC308CE5D80709F489C070F48091450392
:102FF0008C60CA30ECE5DE0709F46BC008F478C0D9
:10300000809145038E7F65C0CE308CE5D80709F4EA
:1030100079C0809145038B7FCF30DC4508F459C0DF
:10302000809145038F7E55C0CC3FECE5DE0709F467
:1030300057C030F5C3318CE5D80709F46FC078F478
:10304000C131ECE5DE0709F465C0C231DC4509F0A9
:10305000A8CF0E945B1E809145038F773AC0C5318F
:103060008CE5D80709F462C008F476C08091460365
:103070008160CB3FDC4509F094CF8093460391CF2C
:10308000C115FDE5DF0709F44DC088F480914603C2
:103090008D7FCE3F9CE5D90781F3809146038E7FDB
:1030A000CF3FDC4550F3809146038360E6CFC230CA
:1030B000FDE5DF0709F459C008F444C080E0C330DF
:1030C000DD4509F06ECF0E942F256BCF809145031F
:1030D00081608093450365CF809145038460F9CF7B
:1030E000809146038260C9CF809145038064F1CF0F
:1030F0000E945B1E809145038068EBCF8091450361
:103100008D7FE7CF80914503877FE3CF8091450393
:103110008F7DDFCF809145038F7BDBCF809145038F
:10312000837FD7CF809146038C7FA7CF80914503C3
:1031300082FB992790F921E0922790FB82F990FB7E
:1031400083F9C7CF80914603982F909591708E7F19
:10315000892B90FB81F991CF0E945B1E90914503D2
:10316000892F97FB87F98058B4CF81E0ACCF81E0FD
:1031700021CFCF93DF93EB0186319C4511F50E945F
:10318000DA239A81992399F08A7A91E009F490E000
:1031900090933F02811109C089E20E94B5230E94E9
:1031A000262480E0DF91CF91089585E3F6CF8091CA
:1031B0003F02811104C089E20E94BC23F0CF85E365
:1031C000FBCF81E0EFCF90934502809344020895B6
:1031D000E0914402F0914502309721F00190F08196
:1031E000E02D099480E00895EF92FF920F931F93D2
:1031F000CF93DF93EC01E0914402F09145023097C8
:1032000009F446C080912B01882341F08091450349
:1032100087FF04C08881898385E088830280F381E9
:10322000E02DCE0109958091DB0282FF31C080FF45
:1032300004C080E298E00E94850510E000E08AE189
:10324000E82E88E0F82E8091DB0280FF0EC0FE01A0
:10325000E00FF11F80811F928F93FF92EF920E94E7
:103260001E060F900F900F900F900F5F1F4F0830AA
:10327000110549F78091DB0280FF0AC088E198E0E0
:10328000DF91CF911F910F91FF90EF900C948505E6
:10329000DF91CF911F910F91FF90EF900895E091F2
:1032A0004402F0914502309739F022E0DC012C9382
:1032B0000480F581E02D0994089520914202309117
:1032C00043022817390771F090934302809342021A
:1032D000E0914402F0914502309721F00680F78199
:1032E000E02D099408952091400230914102281761
:1032F000390771F09093410280934002E0914402BB
:10330000F0914502309721F00084F185E02D099479
:1033100008950E94A12660935302709354028093F3
:1033200055029093560260934F027093500280931F
:10333000510290935202089585B7806885BF85B782
:10334000806885BF0895089508950C94A319089581
:103350000C94A7190E949C1986EF98E20E940427FA
:103360000E94A4190C94A51981E008950C94B41935
:10337000089508950E948C260E94A3090E9409279F
:103380000E94CF140C94A819CF93C82F8091DB0210
:1033900082FF1EC080FF1CC089E398E00E94850563
:1033A0008091DB0280FF14C01F92CF9384E398E0EA
:1033B0009F938F930E941E068091DB020F900F90C7
:1033C0000F900F9080FF04C082E398E00E94850573
:1033D0008C2FCF910C9419078F929F92AF92BF922E
:1033E000CF92DF92EF92FF920F931F93CF93DF93D1
:1033F000CDB7DEB72A970FB6F894DEBF0FBECDBFAC
:103400000E94B8190E94B9190E94E10981110E9415
:10341000891957E4852E52E0952E10E000E0A02E89
:10342000802F0E9434096C01F401E190F1904F016A
:10343000E816F90609F45EC08091DB0281FD0E9466
:103440003D09C7018C259D25B12CEE24E394F12C78
:103450009C012E213F21232B09F446C00E94B6195E
:103460008823A9F0BE82AF82CE20DF2081E0CD2864
:1034700009F480E088870E9495268160782F9A87DA
:1034800089874E815F8168858A850E94A41A000F12
:10349000111FF801E95BFD4F80819181E826F92633
:1034A000F182E0820E947E150E94920C0E94E81830
:1034B000909146028917A9F10E94E818809346026C
:1034C0002A960FB6F894DEBF0FBECDBFDF91CF9125
:1034D0001F910F91FF90EF90DF90CF90BF90AF9032
:1034E0009F908F900C94C419B394EE0CFF1CFCE0D9
:1034F000BF12AECF0F5F1F4F0430110509F08FCF01
:103500008FEF89838A831B820E9495268160782FA2
:103510009D838C8349815A816B818D810E94A41A7D
:10352000C1CF2A960FB6F894DEBF0FBECDBFDF9194
:10353000CF911F910F91FF90EF90DF90CF90BF90B0
:10354000AF909F908F900895DF92EF92FF920F932C
:103550001F93CF93DF93CDB7DEB72B970FB6F894B9
:10356000DEBF0FBECDBF7A878B87F42E052F162FB7
:10357000E72ED82E61110E94FA231E821D827E2D15
:10358000EC82DD824F2D502F612F8D2D9E812B9649
:103590000FB6F894DEBF0FBECDBFDF91CF911F9164
:1035A0000F91FF90EF90DF900C94D120FC0180816F
:1035B00091810C948723CF93C82F882309F48BC063
:1035C0008238C1F40E94E81881FD85C089E30E9419
:1035D000B5230E9426242FEF81EE94E021508040F5
:1035E0009040E1F700C0000089E30E94BC23CF9126
:1035F0000C9426248338A1F40E94E81880FD6BC047
:1036000083E50E94B5230E9426242FEF81EE94E0EB
:10361000215080409040E1F700C0000083E5E5CFF5
:103620008438A1F40E94E81882FD55C087E40E9406
:10363000B5230E9426242FEF81EE94E02150804094
:103640009040E1F700C0000087E4CFCF8CEF8C0FF3
:10365000813A90F46C2F80911F01909120010E947B
:103660004825882329F08C2F0E94BC230E94262401
:103670008C2F0E94B523BBCF80E28C0F883048F49A
:10368000C77081E001C0880FCA95EAF70E94DD2368
:10369000AECFEBE5EC0FE33040F4F0E0EA53FE4F41
:1036A000808190E0CF910C945D19E8E5EC0FE73153
:1036B00050F4F0E0EE0FFF1FE856FE4F808191813D
:1036C000CF910C947319CD3E30F08C2F0E94220BB9
:1036D000CF910C94F50BCF910895882309F452C033
:1036E000823871F40E94E81881FF4CC089E30E947F
:1036F000B5230E94262489E30E94BC230C9426242F
:10370000833859F40E94E81880FF3CC083E50E948A
:10371000B5230E94262483E5EFCF843859F40E9414
:10372000E81882FF2FC087E40E94B5230E94262458
:1037300087E4E2CF9CEF980F913AF0F290E2980F75
:10374000983050F4877091E001C0990F8A95EAF79C
:10375000892F0E94E323D2CF9BE5980F933020F46A
:1037600090E080E00C945D1998E5980F973120F473
:1037700090E080E00C9473198D3E20F00E947C0B49
:103780000C94F50B08951F93CF93DF93182FEB0143
:103790000E94DB1A209731F4812FDF91CF911F9186
:1037A0000C946D1B8FE99FE00197F1F700C00000BA
:1037B0002197F0CF70E060E0893311F460E570E0AC
:1037C0000C94C31B882321F00E94DD230C94262433
:1037D0000895882321F00E94E3230C942624089561
:1037E000BF92CF92DF92EF92FF920F931F93CF93EE
:1037F000DF936C01D62FC72FFC0112810581029542
:103800000F700E94D323E82E8823A1F0E12E11230C
:1038100089F08C2F807F803429F080E28D0FE12C9D
:10382000883040F082E00E9471240E94D32391E00E
:10383000E82EE926BC2EB2949FE0B922EB2DF0E0F1
:10384000E55DFF4C0C940E2F0C2F0F70C07F11F014
:103850000295007F1123A9F0002359F080E28D0F1B
:10386000883010F0D11109C0802F0E94DD230E9402
:1038700026248D2F0E94DB1A14C0802F0E94ED2376
:10388000F6CF8D2F0E946D1B002359F080E28D0F23
:10389000883010F0D1112CC0802F0E94E3230E94A9
:1038A00026242B2D2850330B2430310520F40E9480
:1038B000E8180E941907EE2009F49EC10E94CF2348
:1038C00080FD9AC1F60112820E94C9230E945522EE
:1038D000C6010E941D1E0E94C923DF91CF911F9136
:1038E0000F91FF90EF90DF90CF90BF900C947622D5
:1038F000802F0E94F323D3CFFC2FFF70FF2EC07FB9
:10390000C03219F0F29480EFF822DD2369F0D13053
:1039100049F1112391F1002351F1F601858180FFD6
:10392000A8CF8F70858323C0112381F0011106C0B9
:103930000E940D248F290E94E21BB3CF0130C1F7F2
:103940000E940D248F290E941324ABCF011106C0C1
:103950000E941C248F2D0E94E91BA3CF013009F483
:10396000A0CFF6CF112329F0063008F09ACF8F2D83
:10397000E2CF053008F095CFEDCF002359F3D933CE
:1039800049F4FFEF27EE33E0F15020403040E1F7FB
:1039900000C000008D2F0E946D1B83CF8C2F869559
:1039A0008695837069F0813009F07BCF8D2F9C2F35
:1039B0009370111102C090E080E00E94731971CFE2
:1039C0008D2F9C2F9370111102C090E080E00E9417
:1039D0005D1967CF8D2F112329F00E94220B0E94C1
:1039E000F50B5FCF0E947C0BFACF8C2F837009F010
:1039F00041C0111156CF4D2F429546954770440F47
:103A0000440F0D2F0F7010E030E020E0042E04C0B2
:103A1000000F111F221F331F0A94D2F760E070E0DD
:103A2000CB01D4FF0FC06FE070E080E090E004C0F5
:103A3000660F771F881F991F4A95D2F7609570957A
:103A400080959095C695C695C370602B712B822B7F
:103A5000932BC23049F058F4C13019F00E9407226C
:103A600020CF0E94F5211DCF0E9419221ACF0E945B
:103A7000F32117CF8695112311F08C2F81708823A5
:103A800009F40FCF4D2F429546954770440F440FD0
:103A90000D2F0F7010E030E020E0042E04C0000F66
:103AA000111F221F331F0A94D2F760E070E0CB0190
:103AB000D4FF0FC06FE070E080E090E004C0660FBC
:103AC000771F881F991F4A95D2F76095709580954A
:103AD0009095C695C695C370602B712B822B932B46
:103AE000C23049F058F4C13019F00E94CC22D9CE2E
:103AF0000E94BA22D6CE0E94DE22D3CE0E942F226E
:103B0000D0CECF70112329F08C2F0E9455228D2FFB
:103B100012CF8D2F0E94E91B8C2F0E947622C1CEDE
:103B2000D23F89F160F4D03FC9F0D13F29F1112390
:103B300009F442C001119DCE8C2F8F7121C0D33F5B
:103B400039F1D43FA1F7112369F1CF718C2F0E9475
:103B5000552263E08C2F0E945C24A3CE112341F0F8
:103B6000053008F09ECE8C2F8F710E94992299CE3D
:103B7000063008F096CEF7CF8C2F8F71112369F2A3
:103B80000E9455228ECE8C2F8F711123C9F3C5CF81
:103B9000112329F08C2F8F710E94402282CE0E9427
:103BA0003B227FCE81E00E947124023008F479CE5E
:103BB00082E00E94712475CE002359F0D93309F0B8
:103BC000E9CE8FEF97EEE3E081509040E040E1F7DF
:103BD000DFCE8C2F8F71A1CF4C2F4F706D2FC60170
:103BE0000E9421070E946B215CCE4C2F4F706D2FDD
:103BF000C6010E94240755CEDF91CF911F910F91EE
:103C0000FF90EF90DF90CF90BF9008950F931F9398
:103C1000CF93DF93EC01688179818A810E9491239F
:103C20008C010E94F0220E94F221B801CE01DF91A6
:103C3000CF911F910F910C94F01BCF93DF93EC0168
:103C40008B819C81892B29F08881998189238F3FE1
:103C500059F4DF91CF910895CE010E94061ECE0146
:103C6000DF91CF910C947006CE010E9495068111D0
:103C7000F3CF0E94D323882361F38A81882349F3F9
:103C800082E0DF91CF910C94712490E080E00E945B
:103C90005D1990E080E00E9473190E94FA230E944F
:103CA0000A240E9426240E949E0D0C94F50B0E946B
:103CB000C3230C94451E0E94EA230C94571EE92F3F
:103CC000E295EF70E250EE3070F4F0E0E55CFF4C0E
:103CD0000C940E2F803F19F020F4883E20F481E0F0
:103CE0000895843FE1F380E00895883EC0F3813F6A
:103CF000D1F7F5CF93FB882780F908950E94872399
:103D00000C945F1ECF93DF9300D000D00F92CDB7FD
:103D1000DEB70F900F900F900F900F90DF91CF9123
:103D20000895CF93DF9300D000D000D0CDB7DEB799
:103D300026960FB6F894DEBF0FBECDBFDF91CF91B0
:103D400008951F93CF93DF93C091580216E080919E
:103D500059028C1304C0DF91CF911F910895D0E0D8
:103D60001C9FF0011D9FF00D1124E65AFD4F40816C
:103D7000518162817381848195810E94911E219677
:103D8000C770E5CF40918A0250918B0260918C02FE
:103D900070918D0280918E0290918F020C94911EF1
:103DA0001F93CF93DF9380918F02807FA9F480913E
:103DB0008C02882389F080915802C0915902609149
:103DC0008A0270918B02A0918D02B0918E02D62F43
:103DD000D72316E0C81304C0DF91CF911F91089537
:103DE00090E0109711F0DF3F19F401968770F2CF41
:103DF000189F9001199F300D1124F901E65AFD4FCB
:103E000041814713F2CF40814613EFCF42814111E8
:103E1000ECCF438154814A1B5B0B483C510528F78A
:103E200080918F028F70806180938F02F901E15A37
:103E3000FD4F80818F70806180838AE892E00E94CC
:103E40001D1EDF91CF911F910C94A11EAF92BF92C6
:103E5000CF92DF92EF92FF920F931F93CF93DF9356
:103E6000CDB7DEB761970FB6F894DEBF0FBECDBFFA
:103E70008C0185E0F801DE011D9601900D928A9576
:103E8000E1F7F80140815181E2808AE8C82E82E0A2
:103E9000D82E60918D0270918E026115710509F422
:103EA00061C190918A0220918B02892F82238F3FDA
:103EB00009F458C1A380B480F0908C02F501E61B90
:103EC000F70BFF2009F4FCC080918F02382F307F60
:103ED000E83CF10508F0B2C0311179C0FE2C251381
:103EE00023C0941321C0E1101FC08F7080618093A4
:103EF0008F020E94C21EC6010E941D1E80918F0269
:103F0000F80185838F2D61960FB6F894DEBF0FBE42
:103F1000CDBFDF91CF911F910F91FF90EF90DF9078
:103F2000CF90BF90AF900895AB2829F0842F8523C0
:103F30008F3F09F033C180E0F82FF170DF2E80FF52
:103F40003CC0809158022091590236E0821315C07E
:103F50004D875E878D859E850E948723292F229518
:103F60002F702230F0F0243018F59F70F1F0F80136
:103F70009581907FD1F4D12C1EC090E0389FF00144
:103F8000399FF00D1124E65AFD4F6181651306C07B
:103F90006081641303C062816E110FC00196877047
:103FA000D5CF9F7011F0882331F3805E883018F3ED
:103FB000C8010E941D1EFD2CA5CFEE2009F4A2CF42
:103FC00080918F02816080938F02F12C9BCF25130B
:103FD00006C0941304C0F801EE2009F48DC04D878B
:103FE0005E878D859E850E947E1E882319F1EE20B6
:103FF00009F180918F02803270F020918A02309115
:104000008B0238872F831986BB86AA868C87CE01C0
:1040100007960E941D1E86E0F801AAE8B2E0019012
:104020000D928A95E1F70E94D01E0E94C21EFF24C5
:10403000F39468CFC8010E941D1EF9CF311113C03F
:104040007A2DB98AA88A6E2D89890E94821E8AE8F3
:1040500092E00E941D1E86E0F60111928A95E9F712
:104060000E94C21EB2CF25130FC094130DC0E110E1
:104070000BC0F8018583C8010E941D1E86E0F60171
:1040800011928A95E9F73ECF4D875E878D859E8593
:104090000E947E1E882371F2EE2061F280918F02D1
:1040A000803208F4B8CF20918A0230918B023A8393
:1040B00029831B82BD82AC828E83CE010196A9CF5B
:1040C000E83CF10508F041C0FE2CEE2009F4B2CF27
:1040D00025132AC0941328C080918F0280FD1BC035
:1040E000982F907FC1F0F8018583903F31F0982F91
:1040F000907F905F8F70892B8583C8010E941D1E61
:1041000086E0F801AAE8B2E001900D928A95E1F705
:104110000E94C21EF7CE86E0F801AAE8B2E0019044
:104120000D928A95E1F7EECE4D875E878D859E854F
:104130000E947E1E81116FCF80918F0281608093DB
:104140008F02C8010E941D1EDDCE7A2DB98AA88A71
:104150006E2D89890E94821E86E0F60111928A9551
:10416000E9F7D6CFEE2009F465CF4D875E878D85C0
:104170009E850E947E1EF82E882309F45BCF86E080
:10418000F801AAE8B2E001900D928A95E1F78AE879
:1041900092E00E94D61A0E94D01EBACF81E08E25EE
:1041A000CBCE1F93CF93DF93CDB7DEB72C970FB64F
:1041B000F894DEBF0FBECDBF4F83588769877A87DB
:1041C0008B879C87CE0107960E94261F882369F063
:1041D0008A859B85892B39F04F815885842F8523CB
:1041E0008F3F09F071C016E05FC086E0FE01379690
:1041F000DE01119601900D928A95E1F78A859B85E3
:10420000892B89F38F81988589238F3F61F32091D2
:10421000590230E0C90101968770992740915802F0
:104220004817190671F40E945B1E109259021092F1
:10423000580286E0EAE8F2E0DF011D928A95E9F78C
:10424000D2CF96E0929FD001939FB00D1124A65A31
:10425000BD4FFE01319601900D929A95E1F7809342
:1042600059020E94A11EBFCF819FC0011124865A0E
:104270009D4F0E94261F8823E9F0E09158021E9F5F
:10428000F0011124E65AFD4F408151816281738112
:10429000848195810E94911E8091580290E0019640
:1042A0008770992780935802809158029091590203
:1042B0008913DACF2C960FB6F894DEBF0FBECDBFB0
:1042C000DF91CF911F91089569857A858B859C85B3
:1042D0000E94911E88CFEF92FF920F931F93CF936E
:1042E000DF938C01892B81F0F12CEE24E394E8011B
:1042F0002196F8018491843770F4843008F05FC00F
:104300008130B1F08230A1F1DF91CF911F910F91F7
:10431000FF90EF900895853709F44CC008F43DC034
:104320009CE7980F903780F78F770E946D1B49C0EC
:104330000E5F1F4FFE01849190E2980F983060F459
:104340008770FE2D01C0FF0F8A95EAF78F2F0E941C
:10435000FD230E94262402C00E94DB1A8F2D81506B
:1043600030F2EFE9FFE03197F1F700C00000F7CF3E
:104370000E5F1F4FFE01849190E2980F983050F429
:104380008770FE2D01C0FF0F8A95EAF78F2F0E94DC
:104390000324DFCF0E946D1BE1CF0E5F1F4FFE0194
:1043A000C491C150D8F28FE99FE00197F1F700C0A6
:1043B0000000F7CF0E5F1F4FFE01F490CFCF0E9499
:1043C000DB1A8E01CBCF08950C94E3210E94E421E7
:1043D0006093B2027093B3028093B4029093B502DB
:1043E0000C94451E08950C94E6210F931F930091A1
:1043F000B2021091B3022091B4023091B502602B49
:10440000712B822B932B1F910F910C94E6210F930C
:104410001F930091B2021091B3022091B402309127
:10442000B50260237123822393231F910F910C9473
:10443000E6210F931F930091B2021091B3022091D5
:10444000B4023091B50260277127822793271F910C
:104450000F910C94E6210C94E3210C942B220E94E2
:104460002D226093AE027093AF028093B0029093BE
:10447000B1020C94451E60E070E0CB010C942F2239
:104480000F931F9341E050E060E070E08A019B01D0
:1044900004C0000F111F221F331F8A95D2F7C901D4
:1044A000B8011F910F910C942F220F931F9341E09D
:1044B00050E060E070E004C0440F551F661F771F96
:1044C0008A95D2F78091AE029091AF02A091B0028E
:1044D000B091B1028A019B01082B192B2A2B3B2B8F
:1044E000C901B8011F910F910C942F220F931F93B4
:1044F00041E050E060E070E004C0440F551F661FCB
:10450000771F8A95D2F7CB01BA0160957095809597
:1045100090950091AE021091AF022091B0023091BF
:10452000B10260237123822393231F910F910C9476
:104530002F220F931F9341E050E060E070E004C031
:10454000440F551F661F771F8A95D2F78091AE02E0
:104550009091AF02A091B002B091B1028A019B018B
:10456000082719272A273B27C901B8011F910F9156
:104570000C942F220F931F930091AE021091AF0263
:104580002091B0023091B102602B712B822B932BC2
:104590001F910F910C942F220F931F930091AE0245
:1045A0001091AF022091B0023091B10260237123CB
:1045B000822393231F910F910C942F220F931F930B
:1045C0000091AE021091AF022091B0023091B10281
:1045D00060277127822793271F910F910C942F2218
:1045E00008952CE0929F800D1124982F977041E040
:1045F00001C0440F9A95EAF786958695869595E0D1
:10460000899FF0011124E057FD4F90E080E070E0B9
:104610005191DF0111979B01082E02C03695279515
:104620000A94E2F7217021952527242325272C932E
:1046300001968530910561F708952CE0929F800DD9
:104640001124982F977086958695869525E0829FF0
:10465000F0011124E057FD4F50E040E080E021914F
:1046600030E0092E02C0369527950A94E2F72170B2
:104670003327042E01C0220F0A94EAF7822B4F5FE2
:104680005F4F4530510559F70895BF92CF92DF92A1
:10469000EF92FF920F931F93CF93DF938C01C09003
:1046A000AE02D090AF02E090B002F090B1028091E3
:1046B000B2029091B302A091B402B091B502C82A9F
:1046C000D92AEA2AFB2ACFE1D0E0BC2ED701C601C5
:1046D0000C2E04C0B695A795979587950A94D2F7A6
:1046E00080FD0EC0219788F7B12C8B2DDF91CF91E3
:1046F0001F910F91FF90EF90DF90CF90BF900895A2
:10470000B8018C2F0E944107019761F3EECFCF9340
:10471000DF93EC010E944523BE01DF91CF910C9401
:1047200041071F93CF93DF93EB0190915702992399
:1047300031F0CB01DF91CF911F910C948723882317
:1047400079F0CB010E944523182F682FCE010E94DB
:10475000F122BE01812FDF91CF911F910C9441076F
:10476000CB010E941D23182FF4CF682F80911F01C9
:10477000909120010C94EA25682F80911F0190915F
:1047800020010C94F52580911F01909120010C943B
:1047900000268091B602859585958595089580912E
:1047A000B602877008959091B602977081E009F47F
:1047B00080E008958091DA0208959091DA02892BC1
:1047C0008093DA02089580959091DA02982390936D
:1047D000DA0208951092DA0208959091D902892B95
:1047E0008093D902089580959091D902982390934F
:1047F000D90208951092D90208959091D802892B78
:104800008093D802089580959091D8029823909330
:10481000D80208951092D80208958091B7020895A1
:1048200008950C9410249091B702981721F080936A
:10483000B7020C94112408958091B702882329F0BF
:104840001092B70280E00C9411240895E0911F01AA
:10485000F09120018091DA028083E0911F01F091B4
:10486000200180819091D902892B8083E0911F01E2
:10487000F091200180819091D802892B80839091C2
:10488000B702992381F0E0911F01F091200180810E
:10489000892B808380911F01909120010E943425F3
:1048A00081110E941C2480911F01909120010C9481
:1048B000F41808950C94592498E0899F90011124CC
:1048C000622B6093B6020E9455228091B6028595B4
:1048D000859585950C945A241092B60280E00C942C
:1048E0005A249091B602809589238093B602282F8E
:1048F000277071F4282F082E000C330B9217130623
:1049000039F08595859585950E9476220C946C24C6
:10491000089590E080E00E94BC2F21E08B3E9E4FE6
:1049200009F020E0822F089582E090E00C94AE2FF1
:1049300083E090E00C94AE2FCF9384E090E00E944F
:10494000AE2FC82F81E290E00E94AE2F982F8C2FBF
:10495000CF910895CF93C92F682F84E090E00E94F3
:10496000C22F6C2F81E290E0CF910C94C22FAB014B
:10497000BC018FE090E00C94D42FAB01BC0183E12B
:1049800090E00C94D42F60E070E0CB010C94BD2437
:1049900060E070E0CB010E94B7240C94C3246BEE5E
:1049A0007EEF90E080E00E94E02F60E082E090E007
:1049B0000E94C22F60E083E090E00E94C22F10921C
:1049C000B2021092B3021092B4021092B50260E0EB
:1049D00084E090E00E94C22F60E081E290E00E94BB
:1049E000C22F60E085E090E00E94C22F60E086E088
:1049F00090E00E94C22F6FEF87E090E00E94C22FEC
:104A000040E050E0BA0188E090E00E94D42F60E0DE
:104A10008DE090E00E94C22F40E050E0BA0188E1B2
:104A200090E00E94D42F60E087E190E00E94C22FC6
:104A300040E050E0BA018CE190E00E94D42F60E0A9
:104A400080E290E00E94C22F40E050E0BA0188E18D
:104A500090E00E94D42F0C94C8240C94CF24682F8B
:104A60008EE090E00C94C22FFC01329680912B01D5
:104A7000882321F0809145039EE187FF96E080E046
:104A8000915008F4089521912223D1F38F5FF8CF3C
:104A9000662301F120912B012223F1F0209145039F
:104AA00027FF1AC0462F4695469546954E3190F4FD
:104AB000677021E030E002C0220F331F6A95E2F7F1
:104AC000840F911DFC01828190E02823392381E02D
:104AD000232B69F480E00895FC0132960896219119
:104AE000261721F0E817F907D1F7F4CF81E00895F0
:104AF0009C01FC0132969FEF80E04191461751F0F6
:104B00009F3F19F4411101C0982F8F5F8630A9F79C
:104B10009F3F09F40895290F311D97FD3A95F9013A
:104B200062830895FC01329608962191261303C0F2
:104B3000DF0111971C92E817F907B9F70895E62FDE
:104B4000E695E695E695EE3170F4E80FF92FF11D44
:104B5000677021E030E001C0220F6A95EAF7828198
:104B6000822B828308958091DB0280FF0CC01F920C
:104B70006F938AE698E09F938F930E941E060F9092
:104B80000F900F900F900895E62FE695E695E69525
:104B9000EE3178F4E80FF92FF11D677021E030E075
:104BA00001C0220F6A95EAF720958281282322838B
:104BB00008958091DB0280FF0CC01F926F938CE4FC
:104BC00098E09F938F930E941E060F900F900F9076
:104BD0000F90089520912B01222329F02091450365
:104BE00027FD0C949F250C94782520912B012223DE
:104BF00029F02091450327FD0C94C4250C9492259F
:104C0000FC01329680912B01882351F0809145035D
:104C100087FF06C08EE1DF011D928A95E9F70895AE
:104C200086E0F9CF089508950C94132680914B03E4
:104C3000843049F10E94142680E00E9419071092E6
:104C4000DC0288E190E020E40FB6F894A895809308
:104C500060000FBE2093600083B7817F846083BFB4
:104C600083B7816083BF7894889583B78E7F83BF35
:104C70000FB6F894A89580916000886180936000D9
:104C8000109260000FBE08950895CF930E941226DF
:104C90000E94E1090E944426C0E08C2F0E94340942
:104CA000892B31F4CF5FC430C1F780E0CF910895F4
:104CB00081E0FCCF08950C945A260E945B1E0E944E
:104CC000E8180E9419070C945B261F921FB61F92CA
:104CD00011248F939F93AF93BF938091DC02811136
:104CE00013C08091410390914203A0914303B0917E
:104CF00044034196A11DB11D80934103909342034B
:104D0000A0934303B0934403BF91AF919F918F91C0
:104D10001F901FBE1F90189582E084BD93E095BD43
:104D20009AEF97BD80936E0008952FB7F894809105
:104D3000410390914203A0914303B09144032FBFDC
:104D400008952FB7F89460914103709142038091C8
:104D50004303909144032FBF08959C014FB7F894EB
:104D60008091410390914203A0914303B091440389
:104D70004FBF821B930B089578941F921FB61F920A
:104D800011248F939F93AF93BF9380914103909190
:104D90004203A0914303B09144030196A11DB11DAC
:104DA0008093410390934203A0934303B093440341
:104DB000BF91AF919F918F911F901FBE1F9018952B
:104DC00081E08093E00080E28093D8001092C900D7
:104DD0008FE19EE40197F1F700C0000087E090EBBF
:104DE000DC018093540390935503A0935603B09332
:104DF000570388E19CE00FB6F894A8958093600073
:104E00000FBE90936000FFCF9093D9018093D8019B
:104E100008950E948924811102C00E942D250E94BC
:104E200094248093DB020E949C24909346038093F9
:104E300045030E949824682F70E090E080E00E9473
:104E4000F3216091AE027091AF028091B002909117
:104E5000B1020C942D22809100030895CF93DF932B
:104E600000D00F92CDB7DEB790914B03943019F577
:104E700089837B836A8382E08093E9008FEF90913E
:104E8000E800815095FD06C095ED9A95F1F7000078
:104E90008111F5CF8091E80085FF0DC050E040E022
:104EA00063E070E0CE0101960E941A2A8091E8002A
:104EB0008E778093E8000F900F900F90DF91CF9145
:104EC0000895BC0184E00C942E27BC0183E00C946F
:104ED0002E279C0182E08093E9009FEF8091E800FB
:104EE000915085FD06C085ED8A95F1F7000091117E
:104EF000F5CF8091E80085FF0CC050E040E066E00F
:104F000070E0C9010E941A2A8091E8008E77809390
:104F1000E8000895CF93DF93EC0180912B01882363
:104F2000B1F18091450387FF32C060E282E0809357
:104F3000E9008FEF9091E800815095FD06C095ED56
:104F40009A95F1F700008111F5CF8091E80085FF77
:104F50001BC080912B0170E050E040E0811104C043
:104F600050E040E068E070E0CE010E941A2A809193
:104F7000E8008E778093E80080E2FE01A0EEB2E0C8
:104F800001900D928A95E1F7DF91CF91089568E045
:104F900081E0CDCF8DEA98E00E94850580914A039B
:104FA000811109C00E94AA2B0E94072C8091E20067
:104FB00084608093E200089589EA98E00E94850564
:104FC00010924A03089585EA98E00C94850581EAD9
:104FD00098E00C9485058DE998E00C948505209166
:104FE000DE022F5F822F62E30E94AA2E992319F01E
:104FF0002093DE0208951092DE028091DF02882362
:10500000F1F080914B038430C1F49091E9009F70DE
:105010002091EC00822F817020FD80E8892B93E0A5
:105020009093E9009091EB0090FF04C09091EE0006
:1050300097FD08C08F708093E9001092DF020895F9
:105040001092F1009091E80095FDFACF9091E80060
:1050500090FFF0CF9091E8009E779093E800EACF20
:1050600042E061EC81E00E94262B42E261EC82E0AA
:105070000E94262B42E261EC83E00C94262B809167
:105080004D03833009F45FC030F48130C1F18230C8
:1050900009F49BC008958A3009F487C08B3009F465
:1050A0006DC0893009F04EC080914C03813209F007
:1050B00049C08091500390915103029708F042C07B
:1050C0008091E800877F8093E8008091E80082FF6C
:1050D00035C09091F3008091F200029729F48091FD
:1050E000F1008B7F813021F48091F10080930003E7
:1050F0008091E8008B778093E8000C945A2B809184
:105100004C03813AF9F48091E800877F8093E800AE
:105110008091500390915103892B61F460E280EEFD
:1051200092E070E00E94692A8091E8008B7780937A
:10513000E800089560E090E080E0F3CF80914B03B9
:105140008111C3CF089580914C03813AD9F78091A2
:10515000500390915103892BA9F78091E800877F34
:105160008093E8008091E80080FFFCCF80912B01C4
:105170008093F1008091E8008E77BDCF80914C0341
:10518000813201F78091500390915103892BD1F620
:105190008091E800877F8093E8000E945A2B8091DD
:1051A0004E0380932B010C945B1E80914C03813243
:1051B00049F68091E800877F8093E8000E945A2B8F
:1051C00080914F0380930103089580914C03813AAD
:1051D00009F0B8CF8091E800877F8093E800809144
:1051E000E80080FFFCCF80910103C2CF9FB7F89405
:1051F0001092DF029FBF90914B03943009F048C09A
:105200002091E9002F703091EC00932F917030FDC8
:1052100090E8922B23E02093E9002091EB0020FFFF
:1052200034C02091EE0027FF30C02091DD02222300
:1052300021F02091E80025FF28C01092DD0226E031
:105240003091E80035FF14C08093F1008091E800B0
:1052500085FD27C08091E80080FFFCCF8091E800A9
:105260008E778093E8009F709093E90080E0089526
:1052700030914B03343049F43091EB0035FD05C0DB
:10528000215041F481E08093DD029F709093E9000A
:105290008FEF0895EFE9FFE03197F1F700C00000CC
:1052A000CFCF8FB7F89421E02093DF028FBFDBCF01
:1052B00084B7877F84BF0FB6F894A895809160006B
:1052C000886180936000109260000FBE80E890E0DB
:1052D0000FB6F89480936100909361000FBE0E9416
:1052E000AA190E94AA2B0E94072C8091E2008460D8
:1052F0008093E20078940E948F2E0E94BA1981E276
:1053000091E00E94E3188CE898E00E948505809166
:105310004B03853051F488E898E00E948505809120
:105320004B03853049F00E945D260E94EC190E94D3
:10533000B8190E94B919EBCF0E9416268091490333
:10534000882369F30E944526882349F30E94042A92
:105350000E945B1EE4CF0C94AD29292F3327233004
:10536000310521F168F42130310509F443C02230C0
:10537000310509F444C090E080E030E020E026C030
:105380002132310551F122323105A9F7633071051F
:1053900090F7FB01EE0FFF1FE453FE4F2081318198
:1053A00067537E4FFB01808190E010C099278130C8
:1053B000910581F0009729F00297E9F6E1EBF8E01A
:1053C00002C0E7EDF8E0849190E09F01FA0131839B
:1053D00020830895E5ECF8E0F6CF6330710558F6C8
:1053E000660F771FFB01EE52FE4F2081318189E06D
:1053F00090E0ECCF82E190E026E339E0E7CF8BE567
:1054000090E02BED38E0E2CF80E189BD82E189BDFB
:1054100009B400FEFDCF8091D8008F7D8093D80025
:105420008091E00082608093E0008091E00081FD47
:10543000FCCF0895AF92BF92CF92DF92FF920F936D
:105440001F93CF93DF936C01EB018A010E94792BAC
:10545000F82E811123C00115110539F0F801808162
:105460009181C81BD90BC80ED91EB12CA12C209735
:10547000A9F08091E80085FD22C08091E8008E7738
:105480008093E80001151105A1F0F8018081918158
:10549000A80EB91EB182A08285E0F82E8F2DDF9173
:1054A000CF911F910F91FF90DF90CF90BF90AF9061
:1054B00008950E94792B8823D1F2F82EEFCFF601C0
:1054C00081916F018093F1002197FFEFAF1ABF0A1E
:1054D000CECFFC018091520390915303861797071A
:1054E000A0F06115710529F49091E8009E779093E2
:1054F000E80090E06115710551F4911108C08091A8
:10550000E80082FF34C080E00895BC01F2CF8091B2
:105510004B038823C1F18530C1F18091E80083FD00
:1055200030C08091E80082FDEACF8091E80080FFE2
:10553000E1CF8091F3002091F200382F61157105C1
:1055400019F02830310558F091E02830310509F084
:1055500090E02091E8002E772093E800CBCF819156
:105560008093F100615071092F5F3F4FE7CF809129
:105570004B03882341F0853041F08091E80083FFA0
:10558000BECF81E0089582E0089583E00895FC0194
:10559000809152039091530386179707A0F06115ED
:1055A000710529F48091E8008E778093E80090E0FF
:1055B0006115710551F4911108C08091E80082FFD6
:1055C00035C080E00895BC01F2CF80914B03882361
:1055D000C9F18530C9F18091E80083FD31C0809127
:1055E000E80082FDEACF8091E80080FFE1CF809162
:1055F000F3002091F200382F6115710519F0283061
:10560000310558F091E02830310509F090E08091A3
:10561000E8008E778093E800CBCF84918093F100EF
:105620003196615071092F5F3F4FE6CF80914B0358
:10563000882341F0853041F08091E80083FFBDCFA1
:1056400081E0089582E0089583E00895982F9730CF
:1056500028F08F708093E90081E008959093E9002D
:10566000242F762F50E0981731F07091EC002091A4
:10567000ED005091F00021FD02C09F5FE8CF309116
:10568000EB003E7F3093EB003091ED003D7F309397
:10569000ED003091EB0031603093EB007093EC0043
:1056A0002093ED005093F0002091EE0027FDE5CF10
:1056B00080E0089580914C0387FF13C08091E8003B
:1056C00082FF06C08091E8008B778093E80004C0D9
:1056D00080914B038111F2CF089580914B03882371
:1056E000D9F38091E80080FFF8CF8091E8008E77B1
:1056F000ECCF2091E4003091E50095E6A9012091DE
:10570000EC00822F817020FF06C08091E80080FFAE
:1057100006C080E008952091E80022FD1AC0809123
:105720004B03882389F0853089F08091EB0085FD5B
:105730000FC02091E4003091E50042175307F9F2C1
:105740009150E1F684E0089582E0089583E00895A1
:1057500081E008950E94182C0E94202CE0EEF0E0D9
:10576000808181608083E8EDF0E080818F778083A5
:1057700019BCA7EDB0E08C918E7F8C9380818F7ED9
:10578000808310924A0308950F931F93CF93DF9362
:105790000E94182C0E94202CC8EDD0E088818F77C1
:1057A000888388818068888388818F7D888319BCFD
:1057B00010924B0310924703109249031092480332
:1057C00000EE10E0F80180818B7F8083888181600A
:1057D000888342E060E080E00E94262BE1EEF0E06A
:1057E00080818E7F8083E2EEF0E080818160808323
:1057F000808188608083F80180818E7F80838881AA
:1058000080618883DF91CF911F910F910895E8ED1A
:10581000F0E080818F7E8083E7EDF0E08081816021
:10582000808384E082BF81E080934A030C94C42B80
:10583000E8EDF0E080818E7F80831092E200089591
:105840001092DA001092E10008951F920F920FB6A5
:105850000F9211242F933F934F935F936F937F93F6
:105860008F939F93AF93BF93EF93FF938091E1004A
:1058700082FF0BC08091E20082FF07C08091E100AF
:105880008B7F8093E1000E94EF278091DA0080FFF8
:1058900019C08091D80080FF15C08091DA008E7FFA
:1058A0008093DA008091D90080FF96C080E189BDA5
:1058B00082E189BD09B400FEFDCF81E080934B03F6
:1058C0000E94CA278091E10080FF19C08091E20008
:1058D00080FF15C08091E2008E7F8093E20080916E
:1058E000E20080618093E2008091D8008062809322
:1058F000D80019BC85E080934B030E94E727809174
:10590000E10084FF2BC08091E20084FF27C080E18A
:1059100089BD82E189BD89B5982F917080FFFBCF49
:105920008091D8008F7D8093D8008091E1008F7E98
:105930008093E1008091E2008F7E8093E20080916D
:10594000E20081608093E20080914703882309F49C
:1059500049C084E080934B030E94EB278091E100D3
:1059600083FF29C08091E20083FF25C08091E10080
:10597000877F8093E10082E080934B03109247037E
:105980008091E1008E7F8093E1008091E2008E7F24
:105990008093E2008091E20080618093E20042E027
:1059A00060E080E00E94262B8091F0008860809368
:1059B000F0000E94E327FF91EF91BF91AF919F917B
:1059C0008F917F916F915F914F913F912F910F90A8
:1059D0000FBE0F901F90189519BC10924B030E9498
:1059E000DC2770CF8091E30087FD93E090934B0319
:1059F000B3CF1F920F920FB60F9211242F933F93A4
:105A00004F935F936F937F938F939F93AF93BF93C6
:105A1000CF93DF93EF93FF93D091E900DF708091F4
:105A2000EC00C82FC17080FDC0E81092E9008091A1
:105A3000F000877F8093F00078940E943D2D1092B3
:105A4000E9008091F00088608093F000CD2BCF704A
:105A5000C093E900FF91EF91DF91CF91BF91AF919A
:105A60009F918F917F916F915F914F913F912F9176
:105A70000F900FBE0F901F9018951F93CF93DF9339
:105A8000CDB7DEB7AA970FB6F894DEBF0FBECDBF75
:105A90008CE493E02091F100FC012193CF01F3E02D
:105AA00084359F07B9F70E943F288091E80083FF63
:105AB0001EC180914C0390914D039A3008F017C19C
:105AC000E92FF0E0E75BFF4C0C940E2F803899F043
:105AD000823809F00CC1809150038F70873008F034
:105AE00006C18093E9008091EB0085FB882780F94F
:105AF0001092E90006C080914803909149039111EA
:105B000082609091E800977F9093E8008093F10085
:105B10001092F1008091E8008E77E5C0882309F4A7
:105B2000D3C0823009F0E3C080914E038111D6C00A
:105B3000809150038F702FEF280F263008F0D7C0C8
:105B40008093E9002091EB0020FFC8C0933031F42E
:105B50008091EB0080628093EB00C0C09091EB00DD
:105B600090619093EB0021E030E001C0220F8A9514
:105B7000EAF72093EA001092EA008091EB00886037
:105B8000EACF8111B4C010914E031F778091E300DA
:105B90008078812B8093E3008091E800877F809359
:105BA000E8000E945A2B8091E80080FFFCCF809192
:105BB000E30080688093E30082E0111183E080932A
:105BC0004B0395C08058823008F091C080914E03FD
:105BD00090914F038C3D23E09207A1F583E08A83E7
:105BE0008AE289834FB7F894DE01139620E03EE005
:105BF00051E2E32FF0E050935700E49120FF03C0FF
:105C0000E295EF703F5FEF708E2F90E0EA30C0F0CA
:105C1000C7968D939D932F5F243159F74FBF809185
:105C2000E800877F8093E8006AE270E0CE01019689
:105C30000E94692A8091E8008B778093E80057C022
:105C4000C096E7CF6091500370915103AE014F5F52
:105C50005F4F0E94AB29BC01892B09F448C0909189
:105C6000E800977F9093E80089819A810E94C72A73
:105C7000E1CF8038E1F58091E800877F8093E800EC
:105C8000809147038093F10045CF811130C09091FE
:105C90004E03923060F58091E800877F8093E800A2
:105CA000909347030E945A2B80914703882311F059
:105CB00084E005C08091E30087FDFACF81E0809306
:105CC0004B030E94302813C080914E03813079F439
:105CD00081E0933009F080E0809349031092E9005D
:105CE0008091E800877F8093E8000E945A2B809182
:105CF000E80083FF0AC08091E800877F8093E80076
:105D00008091EB0080628093EB00AA960FB6F89426
:105D1000DEBF0FBECDBFDF91CF911F910895CF930E
:105D200080914B038823A1F0C091E900CF7090913E
:105D3000EC00892F817090FD80E8C82B1092E9005B
:105D40008091E80083FD0E943D2DCF70C093E90053
:105D5000CF910895991B79E004C0991F961708F018
:105D6000961B881F7A95C9F78095089587FB082EA2
:105D7000062687FD819567FD61950E94AA2E0EF487
:105D8000919507FC81950895AA1BBB1B51E107C0A3
:105D9000AA1FBB1FA617B70710F0A61BB70B881FBB
:105DA000991F5A95A9F780959095BC01CD0108954A
:105DB00097FB072E16F4009407D077FD09D00E94B8
:105DC000C42E07FC05D03EF4909581959F4F089511
:105DD000709561957F4F0895A1E21A2EAA1BBB1BF7
:105DE000FD010DC0AA1FBB1FEE1FFF1FA217B307A7
:105DF000E407F50720F0A21BB30BE40BF50B661FBD
:105E0000771F881F991F1A9469F760957095809580
:105E100090959B01AC01BD01CF010895EE0FFF1FCE
:105E20000590F491E02D09940E941C2F332312F465
:105E30008A1B9B0B0C942D2FA29FB001B39FC00116
:105E4000A39F700D811D1124911DB29F700D811DA6
:105E50001124911D08950E941C2FB7FF0895821BE5
:105E6000930B08950E941C2FA59F900DB49F900D39
:105E7000A49F800D911D11240895B7FF0C94322F1B
:105E80000E94322F821B930B08958F929F92AF92A4
:105E9000BF92CF92DF92EF92FF92CF93DF93EC010C
:105EA000688179818A819B816115710581059105E0
:105EB00021F464E279ED8BE597E02DE133EF41E0E9
:105EC00050E00E94F62F49015A019B01AC01A7EA5C
:105ED000B1E40E94322F6B017C01ACEEB4EFA5015E
:105EE00094010E94402FDC01CB018C0D9D1DAE1D45
:105EF000BF1DB7FF03C00197A109B04888839983EC
:105F0000AA83BB839F77DF91CF91FF90EF90DF90C3
:105F1000CF90BF90AF909F908F9008950E94452F93
:105F2000089580E091E00E94452F0895B0E0A0E040
:105F30008093000190930101A0930201B0930301AB
:105F40000895FC014150504030F001900616D1F701
:105F50003197CF010895882799270895F999FECFA1
:105F600092BD81BDF89A992780B50895A6E1B0E069
:105F700044E050E00C94E82FA8E1B0E042E050E0AB
:105F80000C94E82F262FF999FECF92BD81BDF89A87
:105F9000019700B4021639F01FBA20BD0FB6F8946D
:105FA000FA9AF99A0FBE08950396272F0E94C32FDD
:105FB0000E94C22F252F0E94C32F242F0C94C32F81
:105FC0000196272F0E94C32F0C94C22FDC01CB0116
:105FD000FC01F999FECF06C0F2BDE1BDF89A3196F9
:105FE00000B40D9241505040B8F70895052E97FB2C
:105FF0001EF400940E940D3057FD07D00E94EC2E35
:1060000007FC03D04EF40C940D305095409530951C
:1060100021953F4F4F4F5F4F089590958095709514
:1060200061957F4F8F4F9F4F0895F894FFCF521681
:106030005A16611666166B16701675167A167F1646
:10604000841689168E16921697169A169D16A01605
:10605000A316A516A816241C241C7C1C7C1CCE1C74
:10606000EA1C511C511CF51C811D901D901DEC1D3E
:10607000511C511CF51D6A1E6A1E731E731E751E6F
:10608000731E731E731E6A1E6A1E7A1E731E731E93
:106090007A1E662D8E2D772E8E2D772EC12DE22D18
:0660A000772E392E452E7B
:1060A600010000002808641E140A321E01010200C5
:1060B6000E000E0E01191A1B1C1D1E1F202122B8D0
:1060C600022B278A2769276527612701E200E90055
:1060D600EA00B500B600B700CD008301CC008A0106
:1060E600920194012102230224022502260227029C
:1060F6002A02B300B4006F007000818283F0F1F4CD
:10610600F5F6F73331309537679091929300010297
:106116000202020606060909090909090F0F0F0FEF
:106126000F0F1515151819191919191919191919FA
:106136002324252525252525E200E900EA00B500CA
:10614600B600B700CD008301CC008A01920194010C
:106156002102230224022502260227022A02B30074
:10616600B4006F00700081828340B622200A6A095B
:086176004809ED0806091F09A4
:00000001FF
